{"abi":[{"type":"constructor","inputs":[{"name":"recipient","type":"address","internalType":"address"},{"name":"initialOwner","type":"address","internalType":"address"},{"name":"mintAmount","type":"uint256","internalType":"uint256"}],"stateMutability":"nonpayable"},{"type":"function","name":"DOMAIN_SEPARATOR","inputs":[],"outputs":[{"name":"","type":"bytes32","internalType":"bytes32"}],"stateMutability":"view"},{"type":"function","name":"allowance","inputs":[{"name":"owner","type":"address","internalType":"address"},{"name":"spender","type":"address","internalType":"address"}],"outputs":[{"name":"","type":"uint256","internalType":"uint256"}],"stateMutability":"view"},{"type":"function","name":"approve","inputs":[{"name":"spender","type":"address","internalType":"address"},{"name":"value","type":"uint256","internalType":"uint256"}],"outputs":[{"name":"","type":"bool","internalType":"bool"}],"stateMutability":"nonpayable"},{"type":"function","name":"balanceOf","inputs":[{"name":"account","type":"address","internalType":"address"}],"outputs":[{"name":"","type":"uint256","internalType":"uint256"}],"stateMutability":"view"},{"type":"function","name":"burn","inputs":[{"name":"value","type":"uint256","internalType":"uint256"}],"outputs":[],"stateMutability":"nonpayable"},{"type":"function","name":"burnFrom","inputs":[{"name":"account","type":"address","internalType":"address"},{"name":"value","type":"uint256","internalType":"uint256"}],"outputs":[],"stateMutability":"nonpayable"},{"type":"function","name":"decimals","inputs":[],"outputs":[{"name":"","type":"uint8","internalType":"uint8"}],"stateMutability":"view"},{"type":"function","name":"eip712Domain","inputs":[],"outputs":[{"name":"fields","type":"bytes1","internalType":"bytes1"},{"name":"name","type":"string","internalType":"string"},{"name":"version","type":"string","internalType":"string"},{"name":"chainId","type":"uint256","internalType":"uint256"},{"name":"verifyingContract","type":"address","internalType":"address"},{"name":"salt","type":"bytes32","internalType":"bytes32"},{"name":"extensions","type":"uint256[]","internalType":"uint256[]"}],"stateMutability":"view"},{"type":"function","name":"mint","inputs":[{"name":"to","type":"address","internalType":"address"},{"name":"amount","type":"uint256","internalType":"uint256"}],"outputs":[],"stateMutability":"nonpayable"},{"type":"function","name":"name","inputs":[],"outputs":[{"name":"","type":"string","internalType":"string"}],"stateMutability":"view"},{"type":"function","name":"nonces","inputs":[{"name":"owner","type":"address","internalType":"address"}],"outputs":[{"name":"","type":"uint256","internalType":"uint256"}],"stateMutability":"view"},{"type":"function","name":"owner","inputs":[],"outputs":[{"name":"","type":"address","internalType":"address"}],"stateMutability":"view"},{"type":"function","name":"permit","inputs":[{"name":"owner","type":"address","internalType":"address"},{"name":"spender","type":"address","internalType":"address"},{"name":"value","type":"uint256","internalType":"uint256"},{"name":"deadline","type":"uint256","internalType":"uint256"},{"name":"v","type":"uint8","internalType":"uint8"},{"name":"r","type":"bytes32","internalType":"bytes32"},{"name":"s","type":"bytes32","internalType":"bytes32"}],"outputs":[],"stateMutability":"nonpayable"},{"type":"function","name":"renounceOwnership","inputs":[],"outputs":[],"stateMutability":"nonpayable"},{"type":"function","name":"symbol","inputs":[],"outputs":[{"name":"","type":"string","internalType":"string"}],"stateMutability":"view"},{"type":"function","name":"totalSupply","inputs":[],"outputs":[{"name":"","type":"uint256","internalType":"uint256"}],"stateMutability":"view"},{"type":"function","name":"transfer","inputs":[{"name":"to","type":"address","internalType":"address"},{"name":"value","type":"uint256","internalType":"uint256"}],"outputs":[{"name":"","type":"bool","internalType":"bool"}],"stateMutability":"nonpayable"},{"type":"function","name":"transferFrom","inputs":[{"name":"from","type":"address","internalType":"address"},{"name":"to","type":"address","internalType":"address"},{"name":"value","type":"uint256","internalType":"uint256"}],"outputs":[{"name":"","type":"bool","internalType":"bool"}],"stateMutability":"nonpayable"},{"type":"function","name":"transferOwnership","inputs":[{"name":"newOwner","type":"address","internalType":"address"}],"outputs":[],"stateMutability":"nonpayable"},{"type":"event","name":"Approval","inputs":[{"name":"owner","type":"address","indexed":true,"internalType":"address"},{"name":"spender","type":"address","indexed":true,"internalType":"address"},{"name":"value","type":"uint256","indexed":false,"internalType":"uint256"}],"anonymous":false},{"type":"event","name":"EIP712DomainChanged","inputs":[],"anonymous":false},{"type":"event","name":"OwnershipTransferred","inputs":[{"name":"previousOwner","type":"address","indexed":true,"internalType":"address"},{"name":"newOwner","type":"address","indexed":true,"internalType":"address"}],"anonymous":false},{"type":"event","name":"Transfer","inputs":[{"name":"from","type":"address","indexed":true,"internalType":"address"},{"name":"to","type":"address","indexed":true,"internalType":"address"},{"name":"value","type":"uint256","indexed":false,"internalType":"uint256"}],"anonymous":false},{"type":"error","name":"ECDSAInvalidSignature","inputs":[]},{"type":"error","name":"ECDSAInvalidSignatureLength","inputs":[{"name":"length","type":"uint256","internalType":"uint256"}]},{"type":"error","name":"ECDSAInvalidSignatureS","inputs":[{"name":"s","type":"bytes32","internalType":"bytes32"}]},{"type":"error","name":"ERC20InsufficientAllowance","inputs":[{"name":"spender","type":"address","internalType":"address"},{"name":"allowance","type":"uint256","internalType":"uint256"},{"name":"needed","type":"uint256","internalType":"uint256"}]},{"type":"error","name":"ERC20InsufficientBalance","inputs":[{"name":"sender","type":"address","internalType":"address"},{"name":"balance","type":"uint256","internalType":"uint256"},{"name":"needed","type":"uint256","internalType":"uint256"}]},{"type":"error","name":"ERC20InvalidApprover","inputs":[{"name":"approver","type":"address","internalType":"address"}]},{"type":"error","name":"ERC20InvalidReceiver","inputs":[{"name":"receiver","type":"address","internalType":"address"}]},{"type":"error","name":"ERC20InvalidSender","inputs":[{"name":"sender","type":"address","internalType":"address"}]},{"type":"error","name":"ERC20InvalidSpender","inputs":[{"name":"spender","type":"address","internalType":"address"}]},{"type":"error","name":"ERC2612ExpiredSignature","inputs":[{"name":"deadline","type":"uint256","internalType":"uint256"}]},{"type":"error","name":"ERC2612InvalidSigner","inputs":[{"name":"signer","type":"address","internalType":"address"},{"name":"owner","type":"address","internalType":"address"}]},{"type":"error","name":"InvalidAccountNonce","inputs":[{"name":"account","type":"address","internalType":"address"},{"name":"currentNonce","type":"uint256","internalType":"uint256"}]},{"type":"error","name":"InvalidShortString","inputs":[]},{"type":"error","name":"OwnableInvalidOwner","inputs":[{"name":"owner","type":"address","internalType":"address"}]},{"type":"error","name":"OwnableUnauthorizedAccount","inputs":[{"name":"account","type":"address","internalType":"address"}]},{"type":"error","name":"StringTooLong","inputs":[{"name":"str","type":"string","internalType":"string"}]}],"bytecode":{"object":"0x61016060405234801561001157600080fd5b5060405161190c38038061190c83398101604081905261003091610422565b60405180604001604052806008815260200167041676745524332360c41b81525080604051806040016040528060018152602001603160f81b8152508460405180604001604052806008815260200167041676745524332360c41b81525060405180604001604052806008815260200167041474745524332360c41b81525081600390816100be91906104fd565b5060046100cb82826104fd565b5050506001600160a01b0381166100fd57604051631e4fbdf760e01b8152600060048201526024015b60405180910390fd5b610106816101df565b50610112826006610231565b61012052610121816007610231565b61014052815160208084019190912060e052815190820120610100524660a0526101ae60e05161010051604080517f8b73c3c69bb8fe3d512ecc4cf759cc79239f7b179b0ffacaa9a75d522b39400f60208201529081019290925260608201524660808201523060a082015260009060c00160405160208183030381529060405280519060200120905090565b60805250503060c052506101d7836101c86012600a6106b8565b6101d290846106ce565b610264565b50505061076a565b600580546001600160a01b038381166001600160a01b0319831681179093556040519116919082907f8be0079c531659141344cd1fd0a4f28419497f9722a3daafe3b4186f6b6457e090600090a35050565b600060208351101561024d576102468361029e565b905061025e565b8161025884826104fd565b5060ff90505b92915050565b6001600160a01b03821661028e5760405163ec442f0560e01b8152600060048201526024016100f4565b61029a600083836102dc565b5050565b600080829050601f815111156102c9578260405163305a27a960e01b81526004016100f491906106e5565b80516102d482610733565b179392505050565b6001600160a01b0383166103075780600260008282546102fc9190610757565b909155506103799050565b6001600160a01b0383166000908152602081905260409020548181101561035a5760405163391434e360e21b81526001600160a01b038516600482015260248101829052604481018390526064016100f4565b6001600160a01b03841660009081526020819052604090209082900390555b6001600160a01b038216610395576002805482900390556103b4565b6001600160a01b03821660009081526020819052604090208054820190555b816001600160a01b0316836001600160a01b03167fddf252ad1be2c89b69c2b068fc378daa952ba7f163c4a11628f55a4df523b3ef836040516103f991815260200190565b60405180910390a3505050565b80516001600160a01b038116811461041d57600080fd5b919050565b60008060006060848603121561043757600080fd5b61044084610406565b925061044e60208501610406565b9150604084015190509250925092565b634e487b7160e01b600052604160045260246000fd5b600181811c9082168061048857607f821691505b6020821081036104a857634e487b7160e01b600052602260045260246000fd5b50919050565b601f8211156104f857806000526020600020601f840160051c810160208510156104d55750805b601f840160051c820191505b818110156104f557600081556001016104e1565b50505b505050565b81516001600160401b038111156105165761051661045e565b61052a816105248454610474565b846104ae565b6020601f82116001811461055e57600083156105465750848201515b600019600385901b1c1916600184901b1784556104f5565b600084815260208120601f198516915b8281101561058e578785015182556020948501946001909201910161056e565b50848210156105ac5786840151600019600387901b60f8161c191681555b50505050600190811b01905550565b634e487b7160e01b600052601160045260246000fd5b6001815b600184111561060c578085048111156105f0576105f06105bb565b60018416156105fe57908102905b60019390931c9280026105d5565b935093915050565b6000826106235750600161025e565b816106305750600061025e565b816001811461064657600281146106505761066c565b600191505061025e565b60ff841115610661576106616105bb565b50506001821b61025e565b5060208310610133831016604e8410600b841016171561068f575081810a61025e565b61069c60001984846105d1565b80600019048211156106b0576106b06105bb565b029392505050565b60006106c760ff841683610614565b9392505050565b808202811582820484141761025e5761025e6105bb565b602081526000825180602084015260005b8181101561071357602081860181015160408684010152016106f6565b506000604082850101526040601f19601f83011684010191505092915050565b805160208083015191908110156104a85760001960209190910360031b1b16919050565b8082018082111561025e5761025e6105bb565b60805160a05160c05160e0516101005161012051610140516111486107c4600039600061093201526000610905015260006107c20152600061079a015260006106f50152600061071f0152600061074901526111486000f3fe608060405234801561001057600080fd5b50600436106101215760003560e01c8063715018a6116100ad57806395d89b411161007157806395d89b4114610258578063a9059cbb14610260578063d505accf14610273578063dd62ed3e14610286578063f2fde38b146102bf57600080fd5b8063715018a6146101f457806379cc6790146101fc5780637ecebe001461020f57806384b0196e146102225780638da5cb5b1461023d57600080fd5b8063313ce567116100f4578063313ce5671461018c5780633644e5151461019b57806340c10f19146101a357806342966c68146101b857806370a08231146101cb57600080fd5b806306fdde0314610126578063095ea7b31461014457806318160ddd1461016757806323b872dd14610179575b600080fd5b61012e6102d2565b60405161013b9190610e92565b60405180910390f35b610157610152366004610ec8565b610364565b604051901515815260200161013b565b6002545b60405190815260200161013b565b610157610187366004610ef2565b61037e565b6040516012815260200161013b565b61016b6103a2565b6101b66101b1366004610ec8565b6103b1565b005b6101b66101c6366004610f2f565b6103c7565b61016b6101d9366004610f48565b6001600160a01b031660009081526020819052604090205490565b6101b66103d4565b6101b661020a366004610ec8565b6103e8565b61016b61021d366004610f48565b6103fd565b61022a61041b565b60405161013b9796959493929190610f63565b6005546040516001600160a01b03909116815260200161013b565b61012e610461565b61015761026e366004610ec8565b610470565b6101b6610281366004610ffb565b61047e565b61016b61029436600461106e565b6001600160a01b03918216600090815260016020908152604080832093909416825291909152205490565b6101b66102cd366004610f48565b6105bd565b6060600380546102e1906110a1565b80601f016020809104026020016040519081016040528092919081815260200182805461030d906110a1565b801561035a5780601f1061032f5761010080835404028352916020019161035a565b820191906000526020600020905b81548152906001019060200180831161033d57829003601f168201915b5050505050905090565b6000336103728185856105f8565b60019150505b92915050565b60003361038c85828561060a565b610397858585610689565b506001949350505050565b60006103ac6106e8565b905090565b6103b9610813565b6103c38282610840565b5050565b6103d13382610876565b50565b6103dc610813565b6103e660006108ac565b565b6103f382338361060a565b6103c38282610876565b6001600160a01b038116600090815260086020526040812054610378565b60006060806000806000606061042f6108fe565b61043761092b565b60408051600080825260208201909252600f60f81b9b939a50919850469750309650945092509050565b6060600480546102e1906110a1565b600033610372818585610689565b834211156104a75760405163313c898160e11b8152600481018590526024015b60405180910390fd5b60007f6e71edae12b1b97f4d1f60370fef10105fa2faae0126114a169c64845d6126c98888886104f48c6001600160a01b0316600090815260086020526040902080546001810190915590565b6040805160208101969096526001600160a01b0394851690860152929091166060840152608083015260a082015260c0810186905260e001604051602081830303815290604052805190602001209050600061054f82610958565b9050600061055f82878787610985565b9050896001600160a01b0316816001600160a01b0316146105a6576040516325c0072360e11b81526001600160a01b0380831660048301528b16602482015260440161049e565b6105b18a8a8a6105f8565b50505050505050505050565b6105c5610813565b6001600160a01b0381166105ef57604051631e4fbdf760e01b81526000600482015260240161049e565b6103d1816108ac565b61060583838360016109b3565b505050565b6001600160a01b03838116600090815260016020908152604080832093861683529290522054600019811015610683578181101561067457604051637dc7a0d960e11b81526001600160a01b0384166004820152602481018290526044810183905260640161049e565b610683848484840360006109b3565b50505050565b6001600160a01b0383166106b357604051634b637e8f60e11b81526000600482015260240161049e565b6001600160a01b0382166106dd5760405163ec442f0560e01b81526000600482015260240161049e565b610605838383610a88565b6000306001600160a01b037f00000000000000000000000000000000000000000000000000000000000000001614801561074157507f000000000000000000000000000000000000000000000000000000000000000046145b1561076b57507f000000000000000000000000000000000000000000000000000000000000000090565b6103ac604080517f8b73c3c69bb8fe3d512ecc4cf759cc79239f7b179b0ffacaa9a75d522b39400f60208201527f0000000000000000000000000000000000000000000000000000000000000000918101919091527f000000000000000000000000000000000000000000000000000000000000000060608201524660808201523060a082015260009060c00160405160208183030381529060405280519060200120905090565b6005546001600160a01b031633146103e65760405163118cdaa760e01b815233600482015260240161049e565b6001600160a01b03821661086a5760405163ec442f0560e01b81526000600482015260240161049e565b6103c360008383610a88565b6001600160a01b0382166108a057604051634b637e8f60e11b81526000600482015260240161049e565b6103c382600083610a88565b600580546001600160a01b038381166001600160a01b0319831681179093556040519116919082907f8be0079c531659141344cd1fd0a4f28419497f9722a3daafe3b4186f6b6457e090600090a35050565b60606103ac7f00000000000000000000000000000000000000000000000000000000000000006006610bb2565b60606103ac7f00000000000000000000000000000000000000000000000000000000000000006007610bb2565b60006103786109656106e8565b8360405161190160f01b8152600281019290925260228201526042902090565b60008060008061099788888888610c5d565b9250925092506109a78282610d2c565b50909695505050505050565b6001600160a01b0384166109dd5760405163e602df0560e01b81526000600482015260240161049e565b6001600160a01b038316610a0757604051634a1406b160e11b81526000600482015260240161049e565b6001600160a01b038085166000908152600160209081526040808320938716835292905220829055801561068357826001600160a01b0316846001600160a01b03167f8c5be1e5ebec7d5bd14f71427d1e84f3dd0314c0f7b2291e5b200ac8c7c3b92584604051610a7a91815260200190565b60405180910390a350505050565b6001600160a01b038316610ab3578060026000828254610aa891906110db565b90915550610b259050565b6001600160a01b03831660009081526020819052604090205481811015610b065760405163391434e360e21b81526001600160a01b0385166004820152602481018290526044810183905260640161049e565b6001600160a01b03841660009081526020819052604090209082900390555b6001600160a01b038216610b4157600280548290039055610b60565b6001600160a01b03821660009081526020819052604090208054820190555b816001600160a01b0316836001600160a01b03167fddf252ad1be2c89b69c2b068fc378daa952ba7f163c4a11628f55a4df523b3ef83604051610ba591815260200190565b60405180910390a3505050565b606060ff8314610bcc57610bc583610de5565b9050610378565b818054610bd8906110a1565b80601f0160208091040260200160405190810160405280929190818152602001828054610c04906110a1565b8015610c515780601f10610c2657610100808354040283529160200191610c51565b820191906000526020600020905b815481529060010190602001808311610c3457829003601f168201915b50505050509050610378565b600080807f7fffffffffffffffffffffffffffffff5d576e7357a4501ddfe92f46681b20a0841115610c985750600091506003905082610d22565b604080516000808252602082018084528a905260ff891692820192909252606081018790526080810186905260019060a0016020604051602081039080840390855afa158015610cec573d6000803e3d6000fd5b5050604051601f1901519150506001600160a01b038116610d1857506000925060019150829050610d22565b9250600091508190505b9450945094915050565b6000826003811115610d4057610d406110fc565b03610d49575050565b6001826003811115610d5d57610d5d6110fc565b03610d7b5760405163f645eedf60e01b815260040160405180910390fd5b6002826003811115610d8f57610d8f6110fc565b03610db05760405163fce698f760e01b81526004810182905260240161049e565b6003826003811115610dc457610dc46110fc565b036103c3576040516335e2f38360e21b81526004810182905260240161049e565b60606000610df283610e24565b604080516020808252818301909252919250600091906020820181803683375050509182525060208101929092525090565b600060ff8216601f81111561037857604051632cd44ac360e21b815260040160405180910390fd5b6000815180845260005b81811015610e7257602081850181015186830182015201610e56565b506000602082860101526020601f19601f83011685010191505092915050565b602081526000610ea56020830184610e4c565b9392505050565b80356001600160a01b0381168114610ec357600080fd5b919050565b60008060408385031215610edb57600080fd5b610ee483610eac565b946020939093013593505050565b600080600060608486031215610f0757600080fd5b610f1084610eac565b9250610f1e60208501610eac565b929592945050506040919091013590565b600060208284031215610f4157600080fd5b5035919050565b600060208284031215610f5a57600080fd5b610ea582610eac565b60ff60f81b8816815260e060208201526000610f8260e0830189610e4c565b8281036040840152610f948189610e4c565b606084018890526001600160a01b038716608085015260a0840186905283810360c08501528451808252602080870193509091019060005b81811015610fea578351835260209384019390920191600101610fcc565b50909b9a5050505050505050505050565b600080600080600080600060e0888a03121561101657600080fd5b61101f88610eac565b965061102d60208901610eac565b95506040880135945060608801359350608088013560ff8116811461105157600080fd5b9699959850939692959460a0840135945060c09093013592915050565b6000806040838503121561108157600080fd5b61108a83610eac565b915061109860208401610eac565b90509250929050565b600181811c908216806110b557607f821691505b6020821081036110d557634e487b7160e01b600052602260045260246000fd5b50919050565b8082018082111561037857634e487b7160e01b600052601160045260246000fd5b634e487b7160e01b600052602160045260246000fdfea2646970667358221220f7989d6276c5aee48bedbc26cd4e1f510c41345ab8e45803a100add47450f4c764736f6c634300081c0033","linkReferences":{}},"methodIdentifiers":{"DOMAIN_SEPARATOR()":"3644e515","allowance(address,address)":"dd62ed3e","approve(address,uint256)":"095ea7b3","balanceOf(address)":"70a08231","burn(uint256)":"42966c68","burnFrom(address,uint256)":"79cc6790","decimals()":"313ce567","eip712Domain()":"84b0196e","mint(address,uint256)":"40c10f19","name()":"06fdde03","nonces(address)":"7ecebe00","owner()":"8da5cb5b","permit(address,address,uint256,uint256,uint8,bytes32,bytes32)":"d505accf","renounceOwnership()":"715018a6","symbol()":"95d89b41","totalSupply()":"18160ddd","transfer(address,uint256)":"a9059cbb","transferFrom(address,address,uint256)":"23b872dd","transferOwnership(address)":"f2fde38b"},"id":0}